:020000040800F2
:1000000000000220416400081518000817180008B5
:10001000191800081B1800081D180008000000002F
:100020000000000000000000000000001F18000891
:1000300021180008000000002318000825180008F7
:1000400091640008916400089164000891640008BC
:1000500091640008916400089164000891640008AC
:10006000916400089164000891640008916400089C
:1000700091640008916400082D180008916400083C
:100080009164000891640008916400080000000079
:100090000000000000000000000000009164000863
:1000A000916400089164000891640008916400085C
:1000B000916400089164000891640008916400084C
:1000C000916400089164000891640008916400083C
:1000D0009164000891640008916400080000000029
:1000E0009164000891640008916400080000000019
:1000F0000000000000000000000000009164000803
:1001000000000000916400089164000891640008F8
:1001100000000000000000000000000000000000DF
:1001200091640008916400089164000891640008DB
:1001300091640008000000000000000000000000C2
:100140000000000000000000000000003D18000852
:1001500091640008916400089164000891640008AB
:100160009164000891640008000000000000000095
:10017000000000000000000000000000000000007F
:100180000000000091640008000000000000000072
:0801900091640008916400086D
:1001A00010B5054C237833B9044B13B10448AFF3B1
:1001B00000800123237010BD7407002000000000A0
:1001C00060C3000808B5034B1BB103490348AFF3F4
:1001D000008008BD000000007807002060C3000810
:1001E0004B1C012B98BF70472DE9F003911C9B0815
:1001F000B1F80480B1F802900A8831F802CC80444A
:10020000814402448444D9F80070D8F8006015682D
:10021000DCF80040C9F80060C8F80070CCF8005065
:100220001460D9F80470D8F804605568DCF804400C
:10023000C9F80460C8F80470CCF804505460083160
:10024000013BD5D1BDE8F00370474B1C012B98BF93
:1002500070472DE9F003911C9B08B1F80480B1F8B8
:1002600002900A8831F802CC00EB580800EB5909DB
:1002700000EB520200EB5C0CD9F80070D8F800607B
:100280001568DCF80040C9F80060C8F80070CCF8C8
:10029000005014600831013BDFD1BDE8F003704726
:1002A00081F0004102E000BF83F0004330B54FEA27
:1002B00041044FEA430594EA050F08BF90EA020F94
:1002C0001FBF54EA000C55EA020C7FEA645C7FEA27
:1002D000655C00F0E2804FEA5454D4EB5555B8BF4A
:1002E0006D420CDD2C4480EA020281EA030382EABB
:1002F000000083EA010180EA020281EA0303362D4D
:1003000088BF30BD11F0004F4FEA01314FF4801C1F
:100310004CEA113102D0404261EB410113F0004F31
:100320004FEA03334CEA133302D0524263EB4303E8
:1003300094EA050F00F0A780A4F10104D5F1200E86
:100340000DDB02FA0EFC22FA05F2801841F10001E1
:1003500003FA0EF2801843FA05F359410EE0A5F1B5
:1003600020050EF1200E012A03FA0EFC28BF4CF0E6
:10037000020C43FA05F3C01851EBE37101F000459C
:1003800007D54FF0000EDCF1000C7EEB00006EEBA9
:100390000101B1F5801F1BD3B1F5001F0CD3490833
:1003A0005FEA30004FEA3C0C04F101044FEA44528A
:1003B00012F5800F80F09A80BCF1004F08BF5FEA11
:1003C000500C50F1000041EB045141EA050130BDF1
:1003D0005FEA4C0C404141EB010111F4801FA4F194
:1003E0000104E9D191F0000F04BF01460020B1FAE9
:1003F00081F308BF2033A3F10B03B3F120020CDA21
:100400000C3208DD02F1140CC2F10C0201FA0CF0FE
:1004100021FA02F10CE002F11402D8BFC2F1200C63
:1004200001FA02F120FA0CFCDCBF41EA0C01904019
:10043000E41AA2BF01EB0451294330BD6FEA040462
:100440001F3C1CDA0C340EDC04F11404C4F120024D
:1004500020FA04F001FA02F340EA030021FA04F35F
:1004600045EA030130BDC4F10C04C4F1200220FAB6
:1004700002F001FA04F340EA0300294630BD21FAF4
:1004800004F0294630BD94F0000F83F4801306BFBA
:1004900081F480110134013D4EE77FEA645C18BFAE
:1004A0007FEA655C29D094EA050F08BF90EA020F45
:1004B00005D054EA000C04BF1946104630BD91EA3D
:1004C000030F1EBF0021002030BD5FEA545C05D140
:1004D0004000494128BF41F0004130BD14F580047F
:1004E0003CBF01F5801130BD01F0004545F0FE41F3
:1004F00041F470014FF0000030BD7FEA645C1ABF28
:10050000194610467FEA655C1CBF0B46024650EA5E
:10051000013406BF52EA033591EA030F41F400218A
:1005200030BD00BF90F0000F04BF0021704730B510
:100530004FF4806404F132044FF000054FF00001E5
:1005400050E700BF90F0000F04BF0021704730B5A6
:100550004FF4806404F1320410F0004548BF40427B
:100560004FF000013EE700BF42004FEAE2014FEAD0
:1005700031014FEA02701FBF12F07F4393F07F4FAB
:1005800081F06051704732F07F4208BF704793F0AE
:100590007F4F04BF41F40021704730B54FF46074C1
:1005A00001F0004521F000411CE700BF50EA0102C4
:1005B00008BF704730B54FF000050AE050EA01026D
:1005C00008BF704730B511F0004502D5404261EBDD
:1005D00041014FF4806404F132045FEA915C3FF41E
:1005E000D8AE4FF003025FEADC0C18BF03325FEABB
:1005F000DC0C18BF033202EBDC02C2F1200300FA6C
:1006000003FC20FA02F001FA03FE40EA0E0021FA90
:1006100002F11444BDE600BF70B54FF0FF0C4CF47E
:10062000E06C1CEA11541DBF1CEA135594EA0C0F30
:1006300095EA0C0F00F0DEF82C4481EA030621EA6B
:100640004C5123EA4C5350EA013518BF52EA0335A6
:1006500041F4801143F4801338D0A0FB02CE4FF058
:100660000005E1FB02E506F00042E0FB03E54FF088
:100670000006E1FB03569CF0000F18BF4EF0010E80
:10068000A4F1FF04B6F5007F64F5407404D25FEA7C
:100690004E0E6D4146EB060642EAC62141EA55512F
:1006A0004FEAC52040EA5E504FEACE2EB4F1FD0C71
:1006B00088BFBCF5E06F1ED8BEF1004F08BF5FEAEF
:1006C000500E50F1000041EB045170BD06F00046A1
:1006D00046EA010140EA020081EA0301B4EB5C044E
:1006E000C2BFD4EB0C0541EA045170BD41F4801146
:1006F0004FF0000E013C00F3AB8014F1360FDEBF6B
:10070000002001F0004170BDC4F10004203C35DA46
:100710000C341BDC04F11404C4F1200500FA05F3C9
:1007200020FA04F001FA05F240EA020001F000426A
:1007300021F0004110EBD37021FA04F642EB0601E0
:100740005EEA430E08BF20EAD37070BDC4F10C040A
:10075000C4F1200500FA04F320FA05F001FA04F2CE
:1007600040EA020001F0004110EBD37041F10001BA
:100770005EEA430E08BF20EAD37070BDC4F12005C5
:1007800000FA05F24EEA020E20FA04F301FA05F22D
:1007900043EA020321FA04F001F0004121FA04F2D5
:1007A00020EA020000EBD3705EEA430E08BF20EAA5
:1007B000D37070BD94F0000F0FD101F000464000DF
:1007C00041EB010111F4801F08BF013CF7D041EA61
:1007D000060195F0000F18BF704703F00046520065
:1007E00043EB030313F4801F08BF013DF7D043EA36
:1007F0000603704794EA0C0F0CEA135518BF95EAEC
:100800000C0F0CD050EA410618BF52EA4306D1D172
:1008100081EA030101F000414FF0000070BD50EA91
:10082000410606BF1046194652EA430619D094EA1B
:100830000C0F02D150EA013613D195EA0C0F05D105
:1008400052EA03361CBF104619460AD181EA030159
:1008500001F0004141F0FE4141F470014FF0000011
:1008600070BD41F0FE4141F4780170BD70B54FF0AC
:10087000FF0C4CF4E06C1CEA11541DBF1CEA13552C
:1008800094EA0C0F95EA0C0F00F0A7F8A4EB05040E
:1008900081EA030E52EA03354FEA013100F0888005
:1008A0004FEA03334FF0805545EA131343EA1263CE
:1008B0004FEA022245EA111545EA10654FEA002683
:1008C0000EF000419D4208BF964244F1FD0404F53C
:1008D000407402D25B084FEA3202B61A65EB030598
:1008E0005B084FEA32024FF480104FF4002CB6EB55
:1008F000020E75EB030E22BFB61A754640EA0C00D5
:100900005B084FEA3202B6EB020E75EB030E22BF14
:10091000B61A754640EA5C005B084FEA3202B6EB55
:10092000020E75EB030E22BFB61A754640EA9C0014
:100930005B084FEA3202B6EB020E75EB030E22BFE4
:10094000B61A754640EADC0055EA060E18D04FEAA2
:10095000051545EA16754FEA06164FEAC30343EA42
:1009600052734FEAC2025FEA1C1CC0D111F4801F0F
:100970000BD141EA00014FF000004FF0004CB6E708
:1009800011F4801F04BF01430020B4F1FD0C88BFA7
:10099000BCF5E06F3FF6AFAEB5EB030C04BFB6EBB2
:1009A000020C5FEA500C50F1000041EB045170BDA5
:1009B0000EF0004E4EEA113114EB5C04C2BFD4EBD2
:1009C0000C0541EA045170BD41F480114FF0000E56
:1009D000013C90E645EA060E8DE60CEA135594EAD2
:1009E0000C0F08BF95EA0C0F3FF43BAF94EA0C0FD5
:1009F0000AD150EA01347FF434AF95EA0C0F7FF44A
:100A000025AF104619462CE795EA0C0F06D152EA9D
:100A100003353FF4FDAE1046194622E750EA410681
:100A200018BF52EA43067FF4C5AE50EA41047FF492
:100A30000DAF52EA43057FF4EBAE12E74FEA4102F5
:100A4000B2F1E04324BFB3F5001CDCF1FE5C0DD92C
:100A500001F0004C4FEAC0024CEA5070B2F1004F76
:100A600040EB830008BF20F00100704711F0804F79
:100A700021D113F13872BCBF01F00040704741F43E
:100A800080114FEA5252C2F11802C2F1200C10FA42
:100A90000CF320FA02F018BF40F001004FEAC12326
:100AA0004FEAD32303FA0CFC40EA0C0023FA02F3CA
:100AB0004FEA4303CCE77FEA625307D150EA0133A0
:100AC0001EBF4FF0FE4040F44000704701F0004070
:100AD00040F0FE4040F40000704700BF53B94AB9EF
:100AE000002908BF00281CBF4FF0FF314FF0FF3036
:100AF00000F072B9ADF1080C6DE904CE00F006F813
:100B0000DDF804E0DDE9022304B070472DE9F04789
:100B1000089E04468846002B4BD18A42154667D969
:100B2000B2FA82F24AB1C2F1200701FA02F320FAC6
:100B300007F7954047EA030894404FEA154E230C07
:100B4000B8FBFEF71FFA85FC0EFB178843EA084343
:100B500007FB0CF1994209D9EB1807F1FF3080F03F
:100B60001B81994240F21881023F2B445B1AA4B2C8
:100B7000B3FBFEF00EFB103344EA034400FB0CFC15
:100B8000A44509D92C1900F1FF3380F00781A44551
:100B900040F2048102382C4440EA0740A4EB0C04E4
:100BA00000271EB1D4400023C6E900433946BDE802
:100BB000F0878B4209D9002E00F0EB800027C6E9B0
:100BC000000138463946BDE8F087B3FA83F7002FB5
:100BD00047D18B4202D3824200F2FA80841A61EB41
:100BE000030301209846002EE0D0C6E90048DDE767
:100BF00002B9FFDEB2FA82F2002A40F08F80491B70
:100C00004FEA154E1FFA85F80127B1FBFEFC230CB5
:100C10000EFB1C1143EA014308FB0CF1994207D972
:100C2000EB180CF1FF3002D2994200F2CD808446DD
:100C3000591AA3B2B1FBFEF00EFB101443EA0444B0
:100C400008FB00F8A04507D92C1900F1FF3302D2A8
:100C5000A04500F2B6801846A4EB080440EA0C4018
:100C60009FE7C7F1200CBB4022FA0CFE4EEA030EB0
:100C700001FA07F420FA0CF521FA0CF34FEA1E48AA
:100C80002543B3FBF8F92C0C08FB19331FFA8EFA35
:100C900044EA034309FB0AF49C4202FA07F200FA11
:100CA00007F10BD91EEB030309F1FF3080F08780B9
:100CB0009C4240F28480A9F1020973441B1BADB22F
:100CC000B3FBF8F008FB103345EA034400FB0AFAD3
:100CD000A24508D91EEB040400F1FF336BD2A245F4
:100CE00069D90238744440EA0940A0FB0289A4EBA8
:100CF0000A044C45C2464B4654D351D0002E69D00D
:100D0000B1EB0A0564EB030404FA0CFCFD40FC4063
:100D10004CEA0505C6E90054002747E7C2F1200365
:100D200020FA03F7954001FA02F021FA03F34FEAA3
:100D3000154E3843010CB3FBFEF71FFA85F80EFB86
:100D4000173341EA034107FB08F38B4204FA02F42C
:100D500007D9691807F1FF3C2FD28B422DD9023FEA
:100D60002944CB1A81B2B3FBFEF00EFB103341EAEB
:100D7000034100FB08F38B4207D9691800F1FF3CDF
:100D800017D28B4215D902382944C91A40EA0747BD
:100D90003BE73746304609E70746E7E61846FBE6F5
:100DA0004145ABD2B8EB020A69EB0E02013813469B
:100DB000A4E76046E9E7184695E76746D1E781462C
:100DC0007CE702382C4447E7ACF1020C2B442FE7B8
:100DD000384608E73746E9E6704700BF034613F890
:100DE000012B002AFBD1181A0138704700000000BF
:100DF00001F0FF01102A2BDB10F0070F08D010F8CC
:100E0000013B013A8B422DD010F0070F42B3F6D1CF
:100E1000F0B441EA012141EA014122F007047FF0E8
:100E200000070023F0E80256083C85EA010586EA3F
:100E3000010685FA47F5A3FA87F586FA47F6A5FA7B
:100E400087F68EB9EED1F0BC01F0FF0102F0070287
:100E500032B110F8013B013A83EA010313B1F8D132
:100E60000020704701387047002D06BF3546033813
:100E7000073815F0010F07D1013015F4807F02BF4C
:100E8000013015F4C03F0130F0BC0138704700BF9D
:100E90004FF0FF3C06E000BF4FF0010C02E000BF46
:100EA0004FF0010C4DF804CD4FEA410C7FEA6C5C29
:100EB0004FEA430C18BF7FEA6C5C1BD001B050EACC
:100EC000410C0CBF52EA430C91EA030F02BF90EAB7
:100ED000020F0020704710F1000F91EA030F58BF76
:100EE000994208BF90422CBFD8176FEAE37040F0D8
:100EF000010070474FEA410C7FEA6C5C02D150EA76
:100F0000013C07D14FEA430C7FEA6C5CD6D152EA30
:100F1000033CD3D05DF8040B704700BF84461046F5
:100F200062468C461946634600E000BF01B5FFF7F4
:100F3000B7FF002848BF10F1000F01BD4DF808EDC4
:100F4000FFF7F4FF0CBF012000205DF808FB00BF95
:100F50004DF808EDFFF7EAFF34BF012000205DF8EF
:100F600008FB00BF4DF808EDFFF7E0FF94BF01203C
:100F700000205DF808FB00BF4DF808EDFFF7CEFF3D
:100F800094BF012000205DF808FB00BF4DF808ED7C
:100F9000FFF7C4FF34BF012000205DF808FB00BF4D
:100FA0004FEA410C7FEA6C5C02D150EA013C0AD165
:100FB0004FEA430C7FEA6C5C02D152EA033C02D157
:100FC0004FF0000070474FF0010070474FEA4102B8
:100FD00012F5001215D211D56FF47873B3EB62528B
:100FE00012D94FEAC12343F0004343EA505311F0B2
:100FF000004F23FA02F018BF404270474FF0000044
:10100000704750EA013005D111F0004008BF6FF081
:10101000004070474FF00000704700BF08B505481A
:10102000054B036000F034FD00B908BD00F078FB0B
:10103000FBE700BFA8070020003002400268094B10
:101040009A4200D0704782B000230193064B1A6B7E
:1010500042F480521A631B6B03F480530193019B8B
:1010600002B07047003002400038024000B583B043
:1010700000210191094B1A6B42F400121A631B6B99
:1010800003F400130193019B0A460E2000F08CFC30
:101090000E2000F0CFFC03B05DF804FB00380240E6
:1010A0002DE9F0478CB000240794089409940A9421
:1010B0000B940194564B1A6B42F010021A631A6B90
:1010C00002F010020192019A02941A6B42F004029B
:1010D0001A631A6B02F004020292029A03941A6BCA
:1010E00042F080021A631A6B02F080020392039AA4
:1010F00004941A6B42F001021A631A6B02F00102A7
:101100000492049A05941A6B42F002021A631A6B55
:1011100002F002020592059A06941A6B42F0080248
:101120001A631B6B03F008030693069B394E224695
:101130000821304601F01AF9DFF8E080012211465B
:10114000404601F013F9344F22464FF21001384661
:1011500001F00CF9042307930894099407A9304679
:1011600000F0AEFF082307930125089509940A941F
:1011700007A9304600F0A4FF32230793DFF8A090C0
:10118000CDF82090099407A9304600F099FF079503
:10119000089509940A9407A9404600F091FF079525
:1011A000CDF820900994DFF87CA007A9504600F004
:1011B00087FF102307934FF00209CDF82090099480
:1011C0000A9406260B9607A9504600F079FF4FF2C5
:1011D00010030793089509940A9407A9384600F06C
:1011E0006FFF4FF4A4530793CDF8209009940A940D
:1011F0000B9607A9404600F063FF2023079308944D
:10120000099407A9384600F05BFF0CB0BDE8F087F1
:101210000038024000100240000C0240000802406A
:10122000000012100000024008B50B480B4B036091
:101230000B4B436000238360C3604FF48042026124
:1012400043618361C361036201F0ACF800B908BD7A
:1012500000F066FAFBE700BFB00700200054004032
:10126000A086010030B589B0002303930493059351
:10127000069307930268144B9A4201D009B030BD1F
:1012800000250195114C236B43F002032363236B6C
:1012900003F002030193019B4FF410730393122395
:1012A0000493012305930423079303A9084800F03E
:1012B00007FF0295236C43F400132364236C03F4AB
:1012C00000130293029BD9E700540040003802400B
:1012D0000004024008B50E480E4B03604FF4407303
:1012E0004360102383600323C3604FF400730361E2
:1012F0004BF68033436100238361C36101230362A2
:1013000001F0A2F900B908BD00F00AFAFBE700BF3E
:1013100064080020003800402DE9F0438BB0002322
:101320000593069307930893099302683E4B9A42EC
:1013300002D00BB0BDE8F08305460024019403F50C
:1013400000331A6C42F480421A641A6C02F4804230
:101350000192019A02941A6B42F004021A631A6B0A
:1013600002F004020292029A03941A6B42F0010204
:101370001A631A6B02F001020392039A04941A6B27
:1013800042F002021A631B6B03F002030493049BF6
:10139000042305930226069606230993DFF89C9002
:1013A00005A9484600F08CFE4FF00808CDF81480DF
:1013B0000696079408940527099705A9484600F062
:1013C0007FFECDF81480069607940894099705A926
:1013D000164800F075FE4FF4A05305930696079447
:1013E0000894099705A9124800F06AFE1148124BAB
:1013F000036044608460C4604FF4806303614FF411
:10140000006343614FF4005383614FF48073C36101
:101410000462446200F0D4FB18B9064BEB639D6391
:1014200087E700F07DF9F8E700380040000002404F
:1014300000040240040800205860024000080240F6
:1014400010B5204B9B78012B04D01E4B9B78022BB0
:101450001CD010BD1C4C01224FF48051204600F0DE
:1014600085FF322000F06EFA00224FF480512046B2
:1014700000F07CFF322000F065FA144A1449154848
:1014800006F0D4FE0F4B00229A70DEE70E4C0122CC
:101490004FF40041204600F069FF322000F052FA7C
:1014A00000224FF40041204600F060FF322000F09F
:1014B00049FA064A0649084806F0B8FE014B0022E0
:1014C0009A70C6E790070020000C02401C350020EF
:1014D000300A0020702A0020F02A002008B520EEF3
:1014E000000A60EEA00A30EE200A08F00BF908BDF1
:1014F00010B40122002400E0013201EBD1735B1033
:10150000013393420EDD00EB820393ED007A00EB92
:101510008403D3ED007AB4EEE77AF1EE10FAEBDD56
:101520001446E9E720465DF8044B704730B5ADF549
:10153000805D81B00023244A0146244806F054FF10
:101540000024254601E001350234B4F5006F21DAAC
:10155000631C1D4A02EB830302EB8402D3ED000AF5
:1015600092ED000AFFF7BAFF07F0BEFEF3EE047A31
:1015700020EE270ADFED167A30EE670A0DEB8503C1
:1015800083ED000AB5EEC00AF1EE10FADBD50022B9
:101590001A60D8E74FF480616846FFF7A9FF07EEAD
:1015A000900AB8EEE77A0B4BD3ED007AF8EEE77AC3
:1015B00067EE877A93ED010AB8EEC00A87EE800ADB
:1015C0000DF5805D01B030BD700A0020AC08002030
:1015D000000016430000002070B59AB030220021B0
:1015E0000EA808F081FE002409940A940B940C9430
:1015F0000D9403940494059406940794089401941C
:101600001F4B1A6C42F080521A641B6C03F080531B
:101610000193019B02941B4B1A6842F440421A60EA
:101620001B6803F440430293029B01260E964FF47D
:1016300080330F93022514954FF4800315930423F0
:101640001693C02217921893082319930EA802F03C
:10165000D3F90F2309930A950B944FF4A0530C93DD
:101660000D94032109A802F0ADFC0396C82305934D
:1016700005230493069503A802F0C8FD1AB070BDB7
:10168000003802400070004038B500F02FF9FFF735
:10169000A3FFFFF705FDFFF7E9FCFFF7C5FDFFF727
:1016A00019FE00F03FF8FFF7B9FC04F059FC04F014
:1016B00075FC40220E490F4801F01AF94FF4006101
:1016C0000D4806F00DFEFFF7BBFE0C4C0C4D638879
:1016D00022880C49284609F023FB2846FFF77EFBA9
:1016E00081B2284604F0ACFC2046FFF71FFFEAE772
:1016F000702A002064080020AC080020300A002076
:10170000240A00202CC40008014B01229A70704763
:1017100090070020014B02229A707047900700202A
:101720007047704708B50D480D4B03604FF4827346
:10173000436000238360C360036143614FF4007220
:101740008261C3610362436283620A23C36202F05F
:10175000FFFE00B908BDFFF7E3FFFBE7B834002048
:101760000030014000B589B0002303930493059332
:10177000069307930268154B9A4202D009B05DF8B0
:1017800004FB0021019103F584335A6C42F480522A
:101790005A645A6C02F480520192019A02911A6BB7
:1017A00042F001021A631B6B03F001030293029BD8
:1017B000E023039302230493032306930523079353
:1017C00003A9034800F07CFCD8E700BF00300140CB
:1017D0000000024000B583B0002100910C4B5A6C10
:1017E00042F480425A645A6C02F480420092009A99
:1017F00001911A6C42F080521A641B6C03F0805302
:101800000193019B072000F0B1F803B05DF804FBE1
:10181000003802407047FEE7FEE7FEE7FEE770474C
:101820007047704708B500F07BF808BD08B502485E
:1018300000F058FB08BD00BF0408002008B50248AE
:1018400001F0F8FC08BD00BF384A002008B5034687
:101850000B4A126842B10A4A106803446A4693422E
:1018600006D8074A136008BD054A06491160F2E729
:1018700008F000FD0C2303604FF0FF30F3E700BFDA
:1018800094070020484E0020054BD3F8882042F4EE
:101890007002C3F888204FF000629A60704700BF62
:1018A00000ED00E010B504460E4B18784FF47A7343
:1018B000B3FBF0F30C4A1068B0FBF3F000F0D2F881
:1018C00068B90F2C01D901200AE0002221464FF00F
:1018D000FF3000F069F8034B5C60002000E001205D
:1018E00010BD00BF240000202000002008B50B4BD5
:1018F0001A6842F400721A601A6842F480621A6030
:101900001A6842F480721A60032000F02FF8002059
:10191000FFF7C8FFFFF75EFF002008BD003C024054
:10192000034A1168034B1B780B441360704700BFD8
:101930001035002024000020014B1868704700BFBC
:101940001035002038B50446FFF7F6FF0546B4F120
:10195000FF3F02D0044B1B781C44FFF7EDFF401BF8
:10196000A042FAD338BD00BF2400002010B50446C1
:10197000C31E042B0FD80A4AD36823F4E0631B0468
:101980001B0C240204F4E064234343F0BF6343F4DC
:101990000033D36010BD92210248FFF7C2FEEAE790
:1019A00000ED00E034C4000870B505460C4616464C
:1019B0000F2A25D80F2C28D81B4BDB68C3F3022332
:1019C000C3F10702042A28BF0422191D062921D9C0
:1019D000033B4FF0FF3101FA02F224EA02049C407B
:1019E00001FA03F326EA03063443002D14DB240135
:1019F000E4B205F1604505F5614585F8004370BD29
:101A0000AA210A48FFF78DFED4E7AB210748FFF76C
:101A100088FED1E70023DCE705F00F052401E4B2DE
:101A2000034B5C55EBE700BF00ED00E034C4000859
:101A300014ED00E010B5041E0ADB002C07DB04F0F7
:101A40001F02640901239340044A42F8243010BD68
:101A5000BE210348FFF765FEEFE700BF00E100E0AD
:101A600034C400080138B0F1807F0AD2064B5860B8
:101A7000064AF02182F823100020986007221A609D
:101A800070470120704700BF10E000E000ED00E06B
:101A9000A0B110B504460268094B9A4203D06821F0
:101AA0000848FFF73EFE63791BB1012363710020F4
:101AB00010BD23712046FFF7C1FAF6E701207047F9
:101AC0000030024070C4000830B405682C6824F46B
:101AD00080242C60046863608368402B05D0036811
:101AE00099600368DA6030BC704703689A600368E5
:101AF000D960F8E70268D3B2103B0B49A1FB03138E
:101B00001B090A49C95CC165032B06D822F47F7200
:101B100022F003028265806D704722F47F7222F00A
:101B2000030204328265F6E7ABAAAAAA90C30008B2
:101B3000836A826992B9012B0AD01BB1022B01D0B2
:101B400000207047C36A13F0807F2CD100207047BB
:101B5000C36AB3F1C07F28D000207047B2F5005FA0
:101B600005D0022B29D9032B15D000207047032B59
:101B700003D8DFE803F01C041C0A00207047C36A86
:101B800013F0807F15D100207047C36AB3F1C07F86
:101B900011D000207047C36A13F0807F01D001206C
:101BA00070470020704701207047012070470120D6
:101BB00070470120704701207047012070470000E6
:101BC00070B50446FFF7B8FE002C00F038810546DA
:101BD00023689C4A934231D0183293422ED0183257
:101BE00093422BD01832934228D01832934225D0FA
:101BF0001832934222D0183293421FD018329342A7
:101C00001CD002F55672934218D01832934215D068
:101C10001832934212D0183293420FD018329342A6
:101C20000CD01832934209D01832934206D01832A1
:101C3000934203D0B8218448FFF773FD6368A3B1D2
:101C4000B3F1007F11D0B3F1806F0ED0B3F1C06F4C
:101C50000BD0B3F1006F08D0B3F1206F05D0B3F112
:101C6000406F02D0B3F1606F6DD1A3681BB1402B00
:101C700001D0802B6CD1E368B3F5007F01D0002B3D
:101C80006BD12369B3F5806F01D0002B6AD16369F2
:101C90002BB1B3F5006F02D0B3F5805F67D1A369B4
:101CA0002BB1B3F5005F02D0B3F5804F64D1E36987
:101CB00023B1B3F5807F01D0202B62D1236A43B1D9
:101CC000B3F5803F05D0B3F5003F02D0B3F5403FF8
:101CD0005CD1636A0BB1042B5DD1636AC3B1A36AA3
:101CE000032B5DD8E36A43B1B3F5000F05D0B3F120
:101CF000807F02D0B3F1C07F57D1236B43B1B3F5DE
:101D0000001F05D0B3F5800F02D0B3F5C00F51D13D
:101D1000002384F83430022384F8353022681368B5
:101D200023F00103136023681A6812F0010F46D0F4
:101D3000FFF702FE401B0528F5D920236365032029
:101D400084F8350070BDB9213F48FFF7EAFC8CE705
:101D5000BA213D48FFF7E5FC8DE7BB213A48FFF784
:101D6000E0FC8EE7BC213848FFF7DBFC8FE7BD21A4
:101D70003548FFF7D6FC92E7BE213348FFF7D1FC88
:101D800095E7BF213048FFF7CCFC97E7C0212E48EC
:101D9000FFF7C7FC9DE7C1212B48FFF7C2FC9CE77A
:101DA000C6212948FFF7BDFC9CE7C7212648FFF75D
:101DB000B8FCA2E7C8212448FFF7B3FCA8E71A68DB
:101DC000224810406168A2680A43E1680A43216919
:101DD0000A4361690A43A1690A43E1690A43216A26
:101DE0000A430243616A04291ED01A602668756995
:101DF00025F00705636A1D43042B07D1A36A1D4321
:101E0000E36A1BB12046FFF793FE90B97561204647
:101E1000FFF770FEE26D3F23934083600020606512
:101E2000012384F835308DE7E16A206B01430A43D2
:101E3000DBE740236365012084F8350082E7012059
:101E400080E700BF10600240A8C400083F8010F087
:101E50002DE9F04104460F4690461D46866D5A1EF8
:101E60004FF6FE739A4211D894F83430012B35D0D6
:101E7000012384F8343094F83530DBB2012B0BD0D9
:101E8000002384F834300220BDE8F0814FF4E6717D
:101E90001348FFF746FCE7E7022384F835300023B8
:101EA00063652B46424639462046FFF70DFEE26D3C
:101EB0003F239340B3602268136843F01603136016
:101EC000236C23B12268136843F00803136022686F
:101ED000136843F0010313600020D5E70220D3E725
:101EE000A8C40008F0B583B0044600230193724BE8
:101EF0001D68724BA3FB0535AD0A876D3E68C26D48
:101F000008239340334210D003681A6812F0040F7C
:101F10000BD01A6822F004021A60C26D08239340A5
:101F2000BB60436D43F001034365E26D01239340C1
:101F3000334209D02268526912F0800F04D0BB608E
:101F4000636D43F002036365E26D04239340334203
:101F500009D02268126812F0020F04D0BB60636DD2
:101F600043F004036365E26D10239340334224D0B1
:101F70002268126812F0080F1FD0BB6023681A682D
:101F800012F4802F0DD01B6813F4002F04D1236CA2
:101F90009BB12046984710E0A36C73B12046984748
:101FA0000BE01A6812F4807F03D11A6822F008024D
:101FB0001A60236C0BB120469847E26D20239340B2
:101FC000334255D02268126812F0100F50D0BB6017
:101FD00094F83530DBB2052B0ED023681A6812F462
:101FE000802F33D01B6813F4002F2AD1636C002B91
:101FF0003ED0204698473BE02268136823F0160342
:1020000013602268536923F080035361236CA3B1EA
:102010002268136823F008031360E26D3F239340A6
:10202000BB60002384F83430012384F83530236DFD
:10203000002B3FD0204698473CE0A36C002BE7D113
:10204000EBE7E36BA3B12046984711E01A6812F45E
:10205000807F09D11A6822F010021A60002384F8E8
:102060003430012384F83530E36B0BB120469847B8
:10207000636DFBB1636D13F0010F17D0052384F876
:1020800035302268136823F001031360019B01338C
:102090000193AB4204D823681B6813F0010FF5D1FC
:1020A000002384F83430012384F83530E36C0BB11D
:1020B0002046984703B0F0BD20000020B5814E1B9C
:1020C0002DE9F04383B080460E46A24B984217D0CC
:1020D00003F58063984213D003F5806398420FD0D4
:1020E00003F5806398420BD003F58063984207D0D4
:1020F00003F54063984203D0B3219748FFF711FBE3
:1021000033689AB212B11B0C1B041BB1B421924864
:10211000FFF707FB7368012B1ED9112B1CD0022B74
:102120001AD0122B18D08D4A934215D002F5801286
:10213000934211D002F5801293420DD0A2F5F8120D
:10214000934209D002F58012934205D002F5801225
:10215000934201D0032B04D1B368022B06D800248C
:1021600045E0B5217C48FFF7DCFAF5E7B6217A486F
:10217000FFF7D7FAF3E7C8217748FFF7D2FA4AE02A
:10218000042300E000238B4003430232744941F8EA
:102190002230744B1A68FB4303EA0201706810F4A2
:1021A000803F01D047EA02016E4A1160526803EA9B
:1021B0000201706810F4003F01D047EA0201694A49
:1021C0005160926803EA0201706810F4801F01D028
:1021D00047EA0201634A9160D2681340716811F4C2
:1021E000001F01D047EA02035E4AD36001340F2C7E
:1021F00000F2AC800125A54037682F40BD42F5D1E3
:1022000073685A1E012A03D9112B01D0122B19D140
:10221000F368032BAFD8D8F80820610003238B4064
:1022200022EA0302F3688B401343C8F80830D8F859
:10223000042022EA05027368C3F30015A540154384
:10224000C8F80450D8F80C204FEA4409032505FAD1
:1022500009F5ED432A40B36803FA09F31343C8F8BC
:102260000C307368022B01D0122B2BD13369CBB108
:10227000092B17D0012B15D0022B13D0042B11D012
:10228000052B0FD0062B0DD0072B0BD0082B09D018
:102290000A2B07D00C2B05D00F2B03D0E0212E48A2
:1022A000FFF73FFAE208083258F8220004F007036B
:1022B00099000F238B4020EA030033698B400343CE
:1022C00048F82230D8F800301D40736803F003034B
:1022D00003FA09F31D43C8F80050736813F0805FD8
:1022E00084D000230193204B5A6C42F480425A64FC
:1022F0005B6C03F480430193019BA208911C184B73
:1023000053F8210004F0030399000F238B4020EAC7
:102310000300104B98453FF435AF03F580639845B3
:102320000ED003F5806398450CD003F58063984583
:102330000AD003F5806398453FF422AF072322E7D4
:10234000012320E702231EE703231CE703B0BDE8B7
:10235000F08300BF00000240E0C40008000011103C
:1023600000380140003C01400038024070B506468C
:1023700015460C4629B1012D09D875B92404B4615C
:1023800070BD40F29F110648FFF7CBF9F3E74FF419
:10239000D0710348FFF7C5F9EFE7B461F0E700BF7C
:1023A000E0C40008002800F03B81F8B5044603684B
:1023B0009D4A93420CD002F58062934208D002F508
:1023C0008062934204D040F2BF119848FFF7A9F908
:1023D0006368013B964A934200F2A580A3681BB153
:1023E000B3F5804F40F0A580E36823F47F7323F0BA
:1023F0000303002B40F0A3802369B3F5804F03D083
:10240000B3F5404F40F0A1806369012B00F2A38037
:10241000A36933F0FE0340F0A480E36913B1402BBD
:1024200040F0A580236A13B1802B40F0A68094F879
:102430003D30002B00F0A780242384F83D30226833
:10244000136823F0010313602268136843F4004308
:1024500013602268136823F40043136001F0C6FE82
:102460006268744B9A4200F29480734B98428CBF1E
:1024700000230123002B40F0D580704BA3FB0023E9
:102480009B0C21684A6822F03F021A434A60256883
:102490002A6A22F03F02666866498E427FD801337D
:1024A00013432B622568E96921F44F4121F0FF01B4
:1024B0006368604A93427CD801385B00B0FBF3F359
:1024C0000133C3F30B03042B38BF04230B43EB612D
:1024D00021680B6823F0C003E269206A02431343BA
:1024E0000B6021688B6823F4034323F0FF03226908
:1024F000E068024313438B602168CB6823F0FF033D
:102500006269A06902431343CB602268136843F0F9
:102510000103136000202064202384F83D302063F1
:1025200084F83E00F8BD4FF4E0714048FFF7F9F839
:1025300054E740F2C1113D48FFF7F3F854E74FF478
:10254000E1713A48FFF7EDF856E740F2C31137481A
:10255000FFF7E7F858E74FF4E2713448FFF7E1F886
:1025600056E740F2C5113148FFF7DBF855E74FF465
:10257000E3712E48FFF7D5F854E740F2C7112B4816
:10258000FFF7CFF853E784F83C302046FEF76AFEA9
:1025900052E72B4B98428CBF002301236AE74FF48C
:1025A000967101FB03F32749A1FB03139B09013338
:1025B00076E7A268BAB9461E03EB4307B6FBF7F607
:1025C0000136C6F30B06B6FA86F6760936BBC2B9F3
:1025D000013803EB4303B0FBF3F30133C3F30B0206
:1025E00042F4004372E7461E03EB830707EB8707BD
:1025F000B6FBF7F60136C6F30B06B6FA86F6760991
:10260000E4E7013803EB830303EB8303B0FBF3F24E
:102610000132C2F30B0242F4404357E7012355E76E
:102620000120704701207DE7005400401CC50008D0
:102630007F1A0600A08601007F841E0083DE1B43F4
:10264000FF083D00D34D6210002800F03E8170B5B8
:10265000044603689E4A934214D0A2F578429342FE
:1026600010D002F5806293420CD002F5784293427A
:1026700008D002F5E052934204D040F21B11954875
:10268000FFF74FF8636843B1B3F5807F05D0B3F52A
:10269000007F02D0B3F5407F7FD1A3683BB1102B00
:1026A00005D0202B03D0302B01D0B02B7BD1E36899
:1026B000012B03D9032B01D0052B7AD12369B3F564
:1026C000007F01D0002B7AD16369A3F5FA51824AC9
:1026D000914201D9022B78D1A3690BB1082B7AD191
:1026E000E369012B7DD894F84130002B7FD0022282
:1026F00084F841202168CB6923F47B6323F00F0326
:10270000CB6123681A626369934200F09280E368A8
:10271000002B74D11025A368202B00D86D00012058
:1027200001F0DAFE2369B3F5007F6AD0B0FBF5F063
:1027300000EB800043006269B3FBF2F30533674AA4
:10274000A2FB0323DB0803F001029B1A5B081202C1
:10275000991EFD296FD821690A43216813430B6232
:102760002168CB6923F47B6323F00F036268A068C0
:102770000243E0680243A0690243134343F4006349
:10278000CB61236A012B5CD8236A012B5FD0002028
:102790006064012384F8413070BD4FF48E714D4860
:1027A000FEF7BFFF79E740F21D114A48FEF7B9FF77
:1027B0007DE74FF48F714748FEF7B3FF7EE740F2A5
:1027C0001F114448FEF7ADFF7EE74FF4907141487A
:1027D000FEF7A7FF80E740F221113E48FEF7A1FF78
:1027E0007EE74FF491713B48FEF79BFF7BE784F84F
:1027F00040303B4B63632046FEF78EFD77E7202594
:1028000089E7E36853B1AD00B0FBF5F000EB800061
:1028100043006269B3FBF2F3053390E7ED00B0FBD0
:10282000F5F000EB800043006269B3FBF2F305337F
:1028300085E700228CE7636C43F01003636401209A
:10284000AAE740F2BD112348FEF76BFF9CE7254B3A
:1028500063632268244B9A421FD04FF04022D36911
:1028600023F47B6323F00F03D36122681E4B9A424B
:1028700015D04FF0402302221A6222681A4B9A4266
:1028800010D04FF04021CA6992B26368B3F5007F5F
:102890000AD0C3B94FF4807608E0144ADFE7A3F505
:1028A0008063E8E71149EEE74FF48076A068E568B9
:1028B000238B2B439BB203439BB23343134343F419
:1028C0000063CB6163E70026F0E70120704700BF9B
:1028D0000030014054C50008C0CE0200CDCCCCCCA5
:1028E0008B2A0008BD2C000800380040003400404E
:1028F00000296CD010B582B0002A6BD090F840301F
:10290000DBB2012B6AD0012380F8403090F84130CF
:10291000DBB2012B10D1042380F841300023436443
:10292000C1620368DB6903F00703032B09D0052BA1
:1029300007D00286428608E0002380F84030022358
:1029400049E0520092B202864286C36B244A1A645E
:10295000C36B244ADA63C36B234ADA640168CB6928
:1029600003F44073B3F5407F1ED00446038EC26A61
:102970000C31C06BFFF76CFA0346E8B92268D169E5
:1029800011F4806F03D1D16941F48061D161226873
:10299000516811F0010F03D1516841F001015160FC
:1029A000002284F8402016E000230193CB680193B5
:1029B0008B680193019BD8E7636C43F00803636461
:1029C000012384F84130002284F8402003E00123F1
:1029D000184670470123184602B010BD0223FAE7DB
:1029E000252A0008652A00085B2B0008704708B5F7
:1029F000426A03681288DA60436A02334362438D95
:102A0000013B9BB24385438D9BB203B108BD026875
:102A1000536823F0A0035360012380F84130FFF78F
:102A2000E5FFF3E708B5806BFEF76EFE08BD08B55D
:102A30000368DA68C36A1A80C36A0233C362438ECA
:102A4000013B9BB24386438E9BB203B108BD026833
:102A5000536823F060035360012380F84130FEF790
:102A600059FEF3E708B5836BC2694AB919684A6829
:102A700022F001024A6000225A86012283F8412096
:102A80001846FEF747FE08BD704710B584B00446EF
:102A900002689368039390F84130DBB2042B06D0B0
:102AA00094F84130DBB2032B2CD004B010BD039B53
:102AB00013F0010F03D0536813F0400F1FD1039B95
:102AC00013F0400FECD023685A6812F0200FE7D0C3
:102AD0005A6822F060025A60002301932368DA6882
:102AE00001929B680193019B012384F84130636C40
:102AF00043F0020363642046FFF7C6FFD0E7FFF709
:102B000096FFDCE7039B13F0020F04D023685B6899
:102B100013F0800F1DD1039B13F0080FC5D023685D
:102B20005A6812F0200FC0D05A6822F0A0025A60F2
:102B30000023029323689B680293029B012384F87D
:102B40004130636C43F0040363642046FFF79CFF4D
:102B5000ABE72046FFF74BFFDDE708B5806B026867
:102B6000536823F003035360002343854386012306
:102B700080F84130436C43F008034364FFF784FF5F
:102B800008BD704708B5436A9A1C426202681B88F8
:102B9000D360438D013B9BB24385438D9BB23BB9D0
:102BA0000268536823F0A0035360438E9BB203B1C5
:102BB00008BD012380F84130FFF7E3FFF8E700008C
:102BC00008B50268144B9A421BD04FF04023DA68D4
:102BD000C36A991CC1621A80438E013B9BB2438633
:102BE000438E9BB263B902680B4B9A420CD04FF0F4
:102BF0004022536823F060035360438D9BB22BB196
:102C000008BDA3F58063E2E7044AF2E7012380F8F8
:102C10004130FFF7B6FFF3E70038004000340040D2
:102C200008B5436A9A1C42621A880168124B99429D
:102C300017D04FF04023DA60438D013B9BB24385B0
:102C4000438D9BB263B902680B4B9A420CD04FF094
:102C50004022536823F0A0035360438E9BB22BB1F4
:102C600008BDA3F58063E6E7044AF2E7012380F894
:102C70004130FFF786FFF3E70038004000340040A2
:102C800008B50368DA68C36A991CC1621A80438E6A
:102C9000013B9BB24386438E9BB23BB902685368AB
:102CA00023F060035360438D9BB203B108BD012341
:102CB00080F84130FFF765FFF8E7000010B586B0F7
:102CC000044603689A680592704A93426FD04FF0A9
:102CD0004022916804915B68039353680293636890
:102CE000B3F5007F01D0002B70D1059B13F0020FCC
:102CF00003D0039B13F0800F5CD1049B13F0010FF2
:102D000003D0029B13F0400F58D1049B13F0400FE7
:102D100024D0029B13F0200F20D022685B4B9A42F4
:102D200050D04FF04022536823F060035360226874
:102D3000536823F0A0035360002300932368DA68EC
:102D400000929B680093009B012384F84130636CE0
:102D500043F0020363642046FFF796FE059B13F0E1
:102D6000080F22D0039B13F0200F1ED02268536857
:102D700023F0A00353602268444B9A4224D04FF0C2
:102D80004022536823F060035360002301932368BB
:102D90009B680193019B012384F84130636C43F0ED
:102DA000040363642046FFF76FFE06B010BDA2F572
:102DB00080628EE72046FFF7E5FE9EE72046FFF79C
:102DC000FFFEA2E7324AAEE7314ADAE7049B13F08E
:102DD000020F03D0029B13F0800F4AD1059B13F022
:102DE000010F03D0039B13F0400F46D1059B13F056
:102DF000400F1CD0039B13F0200F18D0226853689B
:102E000023F0600353602268204B9A4239D04FF080
:102E10004022536823F0A0035360012384F841301B
:102E2000636C43F0020363642046FFF72DFE049BAE
:102E300013F0080FB9D0029B13F0200FB5D0226811
:102E4000124B9A421FD04FF04022536823F0A00348
:102E500053602268536823F060035360012384F8B1
:102E60004130636C43F0040363642046FFF70CFEBB
:102E70009BE72046FFF7D4FEB0E72046FFF700FFB0
:102E8000B4E7034AC5E7024ADFE700BF0038004065
:102E9000003400402DE9F04782B00768CA00521A9A
:102EA000930003445A6D1B6D9A4257D8B8469B1A3B
:102EB000C1EBC104A2000244526C9A4200D31A46EC
:102EC0000C46064602F1030A4FEA9A0A16E009F197
:102ED000030A4FEA9A0AE3001B1B9D003544A96CC4
:102EE000337C00931FFA89F3E2B2384601F04EFFBB
:102EF000AB6C4B44AB646B6D4B446B6508EB44139C
:102F000003F510639B699BB2534513D3E3001B1B6E
:102F10009A003244516D136D99420BD253B15B1A32
:102F2000C4EBC4018A003244D2F844909945CED310
:102F30009946CCE7E3001B1B98000644326D736D85
:102F40009A420FD804F00F040121A140D7F8344869
:102F500024EA0104C7F83448002000E0012002B050
:102F6000BDE8F0870020FAE7F0B58BB0002800F04C
:102F7000938004460368B3F1A04F03D087214748EC
:102F8000FEF7CFFB256894F8BD3323B3032384F801
:102F9000BD33EB6B13F4807F01D1002323612068E4
:102FA00001F088FC254655F8107B6E460FCD0FC604
:102FB0000FCD0FC695E8030086E80300231D0ECB56
:102FC000384601F0B5FB60B1022384F8BD3301251A
:102FD00028460BB0F0BD84F8BC33204603F0D8F887
:102FE000D4E70021206801F06BFC002315E0D90034
:102FF000C81A82002244012082F83D0082F83C3049
:10300000A2F84230002082F83F0050649064CA1A4F
:103010009100214408650133DBB26568AB42E6D319
:10302000002315E0D800C11A8A002244002182F84A
:10303000FD1182F8FC3182F8FF11C2F80412C2F8C7
:103040000812C21A90002044C0F810120133DBB2FB
:103050009D42E7D8254655F8107B6E460FCD0FC62A
:103060000FCD0FC695E8030086E80300231D0ECBA5
:10307000384601F06BFC054620B1022384F8BD33CD
:103080000125A5E7002384F83830012384F8BD33F7
:10309000206802F02AF89BE7012599E78CC5000813
:1030A000026890F8BC33012B19D010B5012380F8C9
:1030B000BC33836A012B0AD00446006801F0F4FB9C
:1030C000206802F004F8002084F8BC0310BD836976
:1030D000012BF1D0936B43F480339363ECE7022030
:1030E0007047000070B504460D460068066C00EBA2
:1030F000411303F530639A682169012911D03749DA
:103100008E4254D03DB9C5EBC50293002344D3F899
:103110001032002B5CD0E9B2204603F08FF800207B
:1031200070BD12F0080F09D02D498E42F7D912F464
:10313000004FF4D04FF400429A60F0E712F0200FF5
:1031400028D112F0280FEAD125498E4202D912F473
:10315000004F22D1E900491B8A002244D2F8041210
:103160001B69C3F31203C91AC2F81412D2F804126D
:10317000D2F808320B44C2F8083235B9C5EBC502A3
:1031800093002344D3F810325BB1E9B2204603F038
:1031900055F8C4E720229A60C1E74FF400429A60D4
:1031A000BDE704F57172012101F0F2FFEDE712F4C1
:1031B000004F09D112F0200F01D020229A60E9B20D
:1031C000204603F03BF8AAE74FF400429A60A6E7D6
:1031D00004F57172002101F0DBFF9CE70A31544FC6
:1031E0000A30544F38B5044603681D6C03EB411197
:1031F000D1F8082B0E4B9D4207D901F5306112F42E
:10320000004F02D04FF400438B60204603F00EF8CD
:10321000074B9D4202D92369012B01D0002038BD04
:1032200004F571720121206801F0B2FFF6E700BFDA
:103230000A30544F2DE9F84F04460568284601F03E
:1032400093FF08B1BDE8F88F2F460646206801F0CD
:103250005AFF0028F6D0206801F055FF10F0020F49
:1032600004D02268536903F002035361206801F01F
:103270004AFF10F0100F14D02268936923F0100356
:103280009361D5F8208008F00F09C8F34343022B5F
:1032900068D0062B00F088802268936943F0100301
:1032A0009361206801F02FFF10F4002F40F0908010
:1032B000206801F028FF10F4802F40F0D4802068AF
:1032C00001F021FF0028C0F24281206801F01BFFBD
:1032D00010F4006F0AD0D5F8083813F0010F40F051
:1032E00050812268536903F400635361206801F040
:1032F0000AFF10F4805F40F04881206801F003FF6E
:1033000010F4005F40F0A781206801F0FCFE10F08F
:10331000080F40F0B881206801F0F5FE10F4801F1E
:1033200040F0BA81206801F0EEFE10F4001F40F07A
:10333000BD81206801F0E7FE10F0804F40F0C081B1
:10334000206801F0E0FE10F0040F3FF47BAF23682B
:103350005D6815F0040F40F0BC81226853682B4370
:1033600053606FE747F6F07318EA030F94D04FEA03
:10337000C90BABEB09034FEA830AA2444FEA1818C2
:10338000C8F30A02DAF80812284601F021FEC8F351
:103390000A08DAF808324344CAF80832DAF8143274
:1033A0004344CAF8143277E7082204F571712846BD
:1033B00001F00EFEC8F30A184FEAC903A3EB090196
:1033C0008A002244D2F814324344C2F8143263E72C
:1033D000206801F09CFE8046B14617E007EB4913D8
:1033E0000122C3F8082B49462046FFF77BFE1DE06B
:1033F00007EB49130822C3F8082B49462046FFF77C
:10340000F1FE16E009F101094FEA5808B8F1000F82
:103410003FF44EAF18F0010FF4D05FFA89F1206845
:1034200001F085FE824610F0010FD7D11AF0080F87
:10343000DED11AF0100F04D007EB49131022C3F8A5
:10344000082B1AF0200F04D007EB49132022C3F8F1
:10345000082B1AF4005FD5D007EB49134FF4005244
:10346000C3F8082BCEE7206801F059FE8046B1462C
:103470002AE05946204602F0EDFE1AF0080F04D06B
:1034800007EB49130822C3F808291AF0100F04D0DB
:1034900007EB49131022C3F808291AF0400F04D093
:1034A00007EB49134022C3F808291AF0020F04D091
:1034B00007EB49130222C3F808291AF0800F41D103
:1034C00009F101094FEA5808B8F1000F3FF4F7AECF
:1034D00018F0010FF4D05FFA89FB5946206801F01B
:1034E0002FFE824610F0010FC7D009F00F03012113
:1034F00001FA03F2D7F8343823EA0203C7F8343864
:1035000007EB4913C3F8081923698B42B1D14FEA7D
:10351000C902A2EB090293002344596C9A6C0A4435
:103520009A64B9F1000FA4D1C9EBC90293002344F6
:103530001B6D002B9DD104F571720121206801F0F3
:1035400027FE96E749462046FFF7A4FCB8E7D5F8E2
:10355000043823F00103C5F8043894F8F433012B40
:1035600008D0204602F0B0FE2268536903F0004301
:103570005361AAE6002184F8F413204600F03AFAD9
:10358000F2E7204602F088FEABE605F50068D8F8C1
:10359000043023F00103C8F804301021206801F042
:1035A000A7F920E007EB46134FF67F31C3F808195F
:1035B000D3F8002922F40012C3F80029D3F8002917
:1035C00042F00062C3F80029C3F8081BD3F8002BAF
:1035D00022F40012C3F8002BD3F8002B42F0006253
:1035E000C3F8002B01366368B342DBD8D8F81C302F
:1035F00043F00113C8F81C30236BEBB1D8F88430CA
:1036000043F00B03C8F88430D8F8443043F00B0380
:10361000C8F84430D5F8003823F4FE63C5F8003804
:1036200004F57172217C206801F0B2FD22685369B3
:1036300003F48053536160E6D8F8143043F4005328
:1036400043F02B03C8F81430D8F8103043F00B03C4
:10365000C8F81030DEE7206801F08AFD206801F02C
:103660003DFAE060256800F0BBFD227B014628465C
:1036700001F0A4F8204602F0FEFD2268536903F42D
:103680000053536140E6204602F0EFFD2268536983
:1036900003F0080353613EE60021204602F020FEBD
:1036A0002268536903F4801353613BE600212046EE
:1036B00002F010FE2268536903F40013536138E6E8
:1036C000204602F013FE2268536903F080435361E1
:1036D00036E6204602F010FE3FE690F8BC33012BA0
:1036E0000DD010B50446012380F8BC3380F83810A3
:1036F000006801F0DCFC002084F8BC0310BD02204F
:103700007047F8B511F0800F28D101F00F06F500D1
:10371000AF1BBC00274604F5FC74044404343E4649
:103720000644002586F8FD5101F00F012170A260CA
:10373000E370627802B1E180022B1ED090F8BC33B6
:10374000012B1DD00546012380F8BC3321460068BB
:1037500001F0D5F9002085F8BC03F8BD01F00F0693
:10376000F500AF1BBC0027463834044404343E4601
:103770000644012586F83D50D6E700232371DDE796
:103780000220EAE738B511F0800F21D101F00F05D2
:10379000EA00541BA3001C4603F5FC7303440433E6
:1037A00025460544002285F8FD2101F00F0119701E
:1037B00090F8BC23012A1AD00446012280F8BC23C9
:1037C0001946006801F0E6F9002084F8BC0338BD12
:1037D00001F00F04E200151BAB001D463833034413
:1037E00004332C460444012284F83D20DDE7022006
:1037F000EDE770B501F00F05EE00711B8C0004F5CC
:10380000FC740444211D761BB4000444C4F808224F
:10381000C4F810320023C4F8143284F8FD3184F85F
:10382000FC510369012B06D065B1DAB2006801F0E2
:10383000C1FA002070BDC5EBC506B4000444C4F84D
:103840000C22F1E7DAB2006801F012FAF1E701F0B8
:103850000F01C1EBC1018B001844D0F8140270476E
:1038600070B501F00F05EE00711B8C003834044474
:10387000211D761BB4000444A26423650023636504
:10388000012384F83D3084F83C500369012B06D0B5
:103890005DB1DAB2006801F08DFA002070BDC5EBB1
:1038A000C506B4000444E264F2E7DAB2006801F04D
:1038B000DFF9F2E738B501F00F0543689D4236D8CD
:1038C00011F0800F20D1CA00541AA3001C4603F542
:1038D000FC730344043322460244002182F8FD11A4
:1038E00001229A701D7090F8BC23012A21D0044651
:1038F000012280F8BC231946006801F07DFB7DB1F0
:10390000002084F8BC0313E0EA00511B8B00194629
:103910003833034404330144012281F83D20DFE7BA
:1039200004F57172217C206801F032FCE8E7012087
:1039300038BD0220FCE710B501F00F0443689C423B
:103940002CD811F0800F1DD1E3001A1B91000A46FC
:1039500001F5FC71014404310244002382F8FD3179
:1039600000238B700C7090F8BC33012B18D00446E8
:10397000012380F8BC33006801F06BFB002084F861
:10398000BC030CE0E3001A1B91000A4638310144E5
:1039900004310244012382F83D30E1E7012010BDEB
:1039A0000220FCE730B40468606A29B10D46A36ABE
:1039B00000EB134000230CE040EA0240A06212E05A
:1039C00003F1400104EB8101496800EB1140013330
:1039D000DBB2691E8B42F3D340EA024005F13F019E
:1039E00004EB81014860002030BC704703685962D5
:1039F0000020704770470000002800F0638270B517
:103A000082B0044603680F2B39D8236813F0010FE6
:103A10004DD063682BB1B3F5803F02D0B3F5A02F32
:103A200032D1A54B9B6803F00C03042B36D0A24B7C
:103A30009B6803F00C03082B2BD06368B3F5803F21
:103A40005FD0B3F5A02F62D09B4B1A6822F480326E
:103A50001A601A6822F480221A606368002B60D012
:103A6000FDF76AFF0546944B1B6813F4003F1ED117
:103A7000FDF762FF401B6428F5D9032027E2E82107
:103A80008E48FDF74EFEC0E7ED218C48FDF749FE5C
:103A9000C7E7894B5B6813F4800FCED0864B1B6859
:103AA00013F4003F03D06368002B00F00D822368FD
:103AB00013F0020F67D0E368012B41D823691F2B55
:103AC00044D87D4B9B6813F00C0F4AD07A4B9B680F
:103AD00003F00C03082B3FD0E368002B77D0784B22
:103AE00001221A60FDF728FF0546734B1B6813F08F
:103AF000020F63D1FDF720FF401B0228F5D90320F8
:103B0000E5E16D4A136843F480331360A5E76A4B1F
:103B10001A6842F480221A601A6842F480321A60ED
:103B20009BE7FDF709FF0546634B1B6813F4003F55
:103B3000BDD0FDF701FF401B6428F5D90320C6E185
:103B400040F21F115D48FDF7ECFDB7E74FF49071AF
:103B50005A48FDF7E6FDB4E7574B5B6813F4800F56
:103B6000BAD1554B1B6813F0020F04D0E368012B48
:103B700001D00120ABE1504A136823F0F80321691A
:103B800043EAC1031360236813F0080F49D0636947
:103B9000012B2ED8636993B34A4B01221A60FDF7BB
:103BA000CBFE0546444B5B6F13F0020F39D1FDF796
:103BB000C3FE401B0228F5D9032088E13E4A136862
:103BC00023F0F803216943EAC1031360DBE73C4BB0
:103BD00000221A60FDF7B0FE0546374B1B6813F054
:103BE000020FD0D0FDF7A8FE401B0228F5D9032014
:103BF0006DE14FF4B0713148FDF793FDCAE7314BE9
:103C000000221A60FDF798FE05462B4B5B6F13F000
:103C1000020F06D0FDF790FE401B0228F5D90320C5
:103C200055E1236813F0040F00F08780A368012B8F
:103C300001D9052B38D1204B1B6C13F0805F39D193
:103C4000002301931C4B1A6C42F080521A641B6CC7
:103C500003F080530193019B01251B4B1B6813F458
:103C6000807F33D0A368012B44D0052B48D0124B62
:103C70001A6F22F001021A671A6F22F004021A6703
:103C8000A368002B46D0FDF757FE06460A4B1B6F74
:103C900013F0020F4FD1FDF74FFE801B41F2883326
:103CA0009842F3D9032012E14FF4C6710348FDF79F
:103CB00038FDC0E70025D0E700380240C4C5000841
:103CC00000004742800E474200700040834A13685C
:103CD00043F480731360FDF72FFE06467F4B1B688D
:103CE00013F4807FBED1FDF727FE801B0228F5D993
:103CF0000320ECE07A4A136F43F001031367BFE738
:103D0000774B1A6F42F004021A671A6F42F00102F1
:103D10001A67B5E7FDF710FE0646714B1B6F13F0EF
:103D2000020F08D0FDF708FE801B41F2883398424D
:103D3000F3D90320CBE0002D3AD1A369022B3DD863
:103D4000A369002B00F0C280654A926802F00C0261
:103D5000082A00F08F80022B78D1E36913B1B3F504
:103D6000800F31D1236A3F2B34D8636AC03BF02BDC
:103D700036D8A36A022B05D0042B03D0062B01D022
:103D8000082B33D1E36A023B0D2B35D8554B00226B
:103D90001A60FDF7D1FD0546514B1B6813F0007FFB
:103DA00030D0FDF7C9FD401B0228F5D903208EE075
:103DB0004B4A136C23F080531364BEE740F2CF11DB
:103DC0004948FDF7AEFCBBE74FF4EC714648FDF700
:103DD000A8FCC7E740F2D9114348FDF7A2FCC4E7AD
:103DE0004FF4ED714048FDF79CFCC2E740F2DB1157
:103DF0003D48FDF796FCC5E74FF4EE713A48FDF7F4
:103E000090FCC3E7E369226A1343626A43EA8213C0
:103E1000A26A5208013A43EA0243E26A43EA0263B1
:103E20002F4A53602F4B01221A60FDF785FD04468F
:103E30002B4B1B6813F0007F06D1FDF77DFD001BA7
:103E40000228F5D9032042E0002040E0254B002263
:103E50001A60FDF771FD0446214B1B6813F0007FCB
:103E600006D0FDF769FD001B0228F5D903202EE0DE
:103E700000202CE0012B2CD0194B5B6803F480014F
:103E8000E269914201D0012021E003F03F02216A62
:103E90008A4201D001201AE0616A47F6C0721A40D6
:103EA0008A4201D0012012E003F44032A16A8A4222
:103EB00001D001200BE003F07063E26A93420AD064
:103EC000012004E001207047012000E0002002B042
:103ED00070BD0120FBE70020F9E700BF0070004043
:103EE0000038024060004742C4C50008324B9B685E
:103EF00003F00C03042B5CD0082B01D02F48704733
:103F00002DE9F04B2C4B5A6802F03F025B6813F42A
:103F1000800F2BD0284B5B68C3F388131E46002705
:103F20005C010025E41A65EB0705A90141EA9461EB
:103F3000A001001B61EB0501CB0043EA5073C400F4
:103F4000A01943EB07014B0243EAD0534402204639
:103F500019460023FCF7C2FD174B5B68C3F301430E
:103F600001335B00B0FBF3F0BDE8F08B124B5B68F4
:103F7000C3F388131E4600275C010025E41A65EB95
:103F80000705A90141EA9461A001001B61EB05014D
:103F9000CB0043EA5073C400A01943EB07018B0226
:103FA00043EA90538402204619460023FCF796FD0D
:103FB000D2E70348704700BF003802400024F400F5
:103FC00000127A00002800F0FA8070B504460D4611
:103FD0000368013B0E2B11D8072D15D87A4B1B68AF
:103FE00003F00F03AB4215D2EBB2774A137013689C
:103FF00003F00F03AB420DD0012070BD40F2512100
:104000007248FDF78EFBE7E740F252216F48FDF75B
:1040100088FBE3E7236813F0020F29D013F0040FA5
:1040200004D06B4A936843F4E0539360236813F021
:10403000080F04D0664A936843F460439360A36812
:104040007BB1802B0DD0902B0BD0A02B09D0B02BA7
:1040500007D0C02B05D0D02B03D0E02B01D0F02B04
:1040600033D15B4A936823F0F003A1680B4393605C
:10407000236813F0010F42D06368032B2BD86368C9
:10408000012B2ED09A1E012A32D9514A126812F001
:10409000020F00F096804E498A6822F00302134313
:1040A0008B60FDF749FC0646494B9B6803F00C0307
:1040B0006268B3EB820F22D0FDF73EFC801B41F219
:1040C00088339842F0D9032097E740F275213F48A2
:1040D000FDF727FBC5E74FF41F713C48FDF721FBB7
:1040E000CDE73B4A126812F4003FD4D1012084E7A7
:1040F000374A126812F0007FCDD101207DE7324BA4
:104100001B6803F00F03AB4209D9EAB22E4B1A70B9
:104110001B6803F00F03AB4201D001206DE7236859
:1041200013F0040F14D0E3685BB1B3F5805F08D0DF
:10413000B3F5A05F05D0B3F5C05F02D0B3F5E05F83
:1041400031D1234A936823F4E053E1680B43936031
:10415000236813F0080F15D023695BB1B3F5805FB6
:1041600008D0B3F5A05F05D0B3F5C05F02D0B3F5BA
:10417000E05F1ED1164A936823F46043216943EA45
:10418000C1039360FFF7B2FE114B9B68C3F30313A7
:10419000104AD35CD840104B1860104B1868FDF7DC
:1041A00081FB002029E740F2BA210848FDF7B9FA5F
:1041B000C7E740F2C1210548FDF7B3FADAE701206D
:1041C0007047012019E700BF003C0240C4C5000849
:1041D0000038024078C3000820000020280000209A
:1041E000014B1868704700BF2000002008B5FFF79A
:1041F000F7FF044B9B68C3F38223034AD35CD84088
:1042000008BD00BF0038024088C3000830B583B045
:1042100004460368013B0E2B21D8236813F0050FD9
:1042200051D0E368023B052B1FD8A368C03BF02B9D
:1042300021D86368023B3D2B23D8A04B00221A6093
:10424000FDF77AFB05469E4B1B6813F0006F1ED0EE
:10425000FDF772FB401B0228F5D903200DE140F663
:10426000D9119848FDF75DFAD7E74FF41E619548DC
:10427000FDF757FAD9E740F6E1119248FDF751FAF8
:10428000D7E740F6E3118F48FDF74BFAD5E76368AF
:10429000A26843EA8213E26843EA0273884AC2F8DA
:1042A0008430864B01221A60FDF746FB0546844B9D
:1042B0001B6813F0006F06D1FDF73EFB401B022880
:1042C000F5D90320D9E0236813F0020F00F0CD8068
:1042D0002369B3F5807F7ED0B3F5007F7BD07A4A27
:1042E000934278D002F58032934274D002F5803246
:1042F000934270D002F5803293426CD002F5803246
:10430000934268D002F58032934264D002F5803245
:10431000934260D002F5803293425CD002F5803245
:10432000934258D002F58032934254D002F5803245
:10433000934250D002F5803293424CD002F5803245
:10434000934248D002F58032934244D002F5803245
:10435000934240D002F5803293423CD002F5803245
:10436000934238D002F58032934234D002F5803245
:10437000934230D002F5803293422CD002F5803245
:10438000934228D002F58032934224D002F5803245
:10439000934220D002F5803293421CD002F5803245
:1043A000934218D002F58032934214D002F5803245
:1043B000934210D002F5803293420CD002F5803245
:1043C000934208D002F58032934204D040F6122185
:1043D0003C48FDF7A6F900230193394B1A6C42F0D3
:1043E00080521A641B6C03F080530193019B374A7F
:1043F000136843F480731360FDF79EFA0546334B50
:104400001B6813F4807F06D1FDF796FA401B022843
:10441000F5D9032031E02A4B1B6F13F4407312D0FF
:10442000226902F440729A420DD0254B1A6F22F491
:104430004072274901200860002008601A671B6F3E
:1044400013F0010F1BD1236903F44072B2F5407FD2
:1044500026D01B4A936823F4F813936018490B6F16
:104460002269C2F30B0213430B67236813F0080F92
:1044700021D0227D174B1A60002003B030BDFDF71C
:104480005BFA05460E4B1B6F13F0020FDBD1FDF7F5
:1044900053FA401B41F288339842F3D90320ECE7EA
:1044A00007498A6822F4F81223F0704323F440731A
:1044B00013438B60D2E70020DFE700BF680047426C
:1044C00000380240FCC500080003020000700040F4
:1044D000400E4742E011474201282CD1184B9B68FF
:1044E00013F4000303D0012B27D116487047144B57
:1044F0005B6813F4800F15D0114BD3F8843003F0B0
:104500003F031148B0FBF3F00D4AD2F88430C3F3F7
:10451000881300FB03F0D2F88430C3F30273B0FBBE
:10452000F3F07047064BD3F8843003F03F0307489D
:10453000B0FBF3F0E8E7002070470020704700BFB1
:10454000003802400080BB0000127A000024F40012
:10455000002800F0C88010B504460368634A9342FF
:1045600014D0A2F57842934210D002F580629342B3
:104570000CD002F57842934208D002F5E052934203
:1045800004D04FF4A1715A48FDF7CBF8636813B11A
:10459000B3F5827F6BD1A3682BB1B3F5806F02D0E6
:1045A000B3F5004F69D1E368B3F5006F01D0002B7C
:1045B00069D1A369B3F5007F03D013B1B3F5802FA0
:1045C00067D1E3696BB1082B0BD0102B09D0182BE6
:1045D00007D0202B05D0282B03D0302B01D0382B2F
:1045E0005DD1236A0BB1802B5FD1636A0BB1102BB5
:1045F00061D1636A33B923690BB1022B61D163695D
:10460000012B64D80023A36294F85130002B64D0AE
:10461000022384F851302268136823F040031360AA
:104620006368A2681343E268134322691343626913
:104630001343A26902F400721343E2691343226A2E
:104640001343A16A22680B431360638B03F00403D6
:10465000616A22680B4353602268D36923F40063C4
:10466000D36100206065012384F8513010BD40F211
:1046700043111F48FDF755F88DE74FF4A2711C4810
:10468000FDF74FF88FE740F245111948FDF749F85B
:104690008FE74FF4A3711648FDF743F891E740F216
:1046A00047111348FDF73DF89BE74FF4A4711048FC
:1046B000FDF737F899E740F249110D48FDF731F859
:1046C00097E74FF4A6710A48FDF72BF897E740F2F9
:1046D0004D110748FDF725F894E784F8503020463F
:1046E000FDF740F894E70120704700BF003001401B
:1046F00038C60008002301330C4A934211D80269DE
:10470000002AF8DA036943F001030361002301334F
:10471000064A934207D8026912F0010FF7D1002030
:104720007047032070470320704700BF400D03000F
:1047300084B010B5044603A880E80E00089B012B46
:104740001FD1A36B23F48033A363E36823F48403B2
:1047500023F04003E360E36823F44013E3600F9B1E
:10476000012B09D02046FFF7C5FF069B012B1BD06C
:10477000BDE8104004B07047E36843F48013E36081
:10478000F0E7E36843F04003E3602046FFF7B2FF41
:104790000C9B23B9A36B43F48033A363E5E7A36BBE
:1047A00023F48033A363E0E7A36843F00603A36028
:1047B000A36843F02003A360DAE70000022A0AD0CE
:1047C0000921C26822F47052C260C36843EA81239F
:1047D000C360002070472A4B0B442A4A93423FD9BA
:1047E000294B0B44294A93423CD9A1F57403A3F504
:1047F0001053274A934237D9A1F18373A3F5E743B6
:1048000002F5C332A032934230D9224B0B44224AE4
:1048100093422DD9214B0B4402F5922202F5787276
:10482000934227D91E4B0B4402F5C32202F5207296
:10483000934221D9A1F1B773A3F5585302F5B712EA
:1048400002F55872934219D9164B0B4402F5122205
:1048500002F5F862934201D90621B2E70721B0E7D9
:104860000F21AEE70E21ACE70D21AAE70C21A8E746
:104870000B21A6E70A21A4E70921A2E70821A0E766
:10488000405327FFFF340C00401E1BFF3F420F0028
:104890007F4F120060B6E5FE5FE3160000D3CEFE48
:1048A000C05BB3FEE05459FE836843F001038360AC
:1048B00000207047836823F0010383600020704765
:1048C00008B5C36823F0C043C360012909D069B9A2
:1048D000C36843F08043C3603220FDF733F8002003
:1048E00008BDC36843F00053C360F5E70120F7E754
:1048F000890141F02001016100230133054A9342FF
:1049000005D8026912F0200FF7D10020704703206C
:10491000704700BF400D03001023036100230133E3
:10492000054A934205D8026912F0100FF7D1002012
:1049300070470320704700BF400D0300D0F80038D7
:104940001943C0F8001800207047000084B02DE91A
:10495000F041044607A880E80E002546002306E043
:1049600003F1400204EB82020021516001330E2B5F
:10497000F6D9119B23BBD4F8043843F00203C4F8E2
:104980000438A36B43F40013A363A36B23F4002345
:10499000A363A36B23F48023A3630023C4F8003E26
:1049A00004F50066D4F80038C4F800380C9B012BDD
:1049B00014D1099B6BB900212046FFF7BFFF11E01E
:1049C000A36B23F40013A363A36B43F40023A3633B
:1049D000E3E701212046FFF7B1FF03E00321204672
:1049E000FFF7ACFF10212046FFF782FF804608B199
:1049F0004FF001082046FFF78FFF08B14FF0010884
:104A0000002333617361F3610AE0C3B94FF00060C2
:104A1000C2F8000900220A614FF67F328A60013332
:104A20000799994210D905EB431202F51061D2F8AB
:104A300000090028E9DB0020C2F80009EAE74FF08E
:104A40009040C2F80009E5E700230AE0BBB14FF04F
:104A50009047C2F8007B002202614FF67F328260ED
:104A60000133994210D905EB431202F53060D2F8B8
:104A7000007B002FEADB0027C2F8007BEBE74FF05A
:104A80000067C2F8007BE6E7336923F48073336183
:104A90000023A3616FF0804363610A9B1BB9A36984
:104AA00043F01003A361A2690B4B1343A3610D9B59
:104AB0001BB1A36943F00803A361119B012B04D030
:104AC0004046BDE8F04104B07047A36943F080431D
:104AD00043F00403A361F3E700383C80D0F80838C2
:104AE00013F0060307D0022B07D0062B01D00F20AE
:104AF000704702207047002070470220704770B452
:104B00000B784A78012A22D0D0F81C2803F00F062F
:104B10000124B44042EA0442C0F81C2800EB4310D0
:104B2000D0F8003B13F4004F0ED1D0F8003B8A6858
:104B3000C2F30A02C97842EA8142134343F0805328
:104B400043F40043C0F8003B002070BC7047D0F82D
:104B50001C4803F00F06B24092B22243C0F81C2852
:104B600000EB4310D0F8002912F4004FECD1D0F83C
:104B700000298C68C4F30A04C97844EA814444EAF1
:104B80008353134343F0805343F40043C0F8003988
:104B9000DAE7000030B40B784A78012A24D000EB21
:104BA0004313D3F8002B002A50DBD0F83C580A7886
:104BB00002F00F02012404FA02F225EA0242C0F8D0
:104BC0003C28D0F81C28097801F00F018C4022EA1B
:104BD0000444C0F81C48D3F8001B234A0A40C3F819
:104BE000002B002030BC704700EB4313D3F80029A2
:104BF000002A1EDBD0F83C580A7802F00F0201248C
:104C000004FA02F292B225EA0202C0F83C28D0F877
:104C10001C28097801F00F018C40A4B222EA040498
:104C2000C0F81C48D3F80019104A0A40C3F80029FC
:104C3000D7E7D3F8002942F00062C3F80029D3F87F
:104C4000002942F08042C3F80029D3E7D3F8002BB3
:104C500042F00062C3F8002BD3F8002B42F08042F0
:104C6000C3F8002BA1E700BF0078F3EF007833EC26
:104C700070B40B784C78012C26D000EB431000F573
:104C800030631C69E40CE4041C611C6924F0FF54CB
:104C900024F4C0141C614C690CB18C684C611C6913
:104CA00044F400241C611C698D68C5F312052C4373
:104CB0001C61012A65D0D0F8003B43F00443C0F8E2
:104CC000003B002070BC70474C696CBB00EB431488
:104CD000D4F8105925F0FF5525F4C015C4F8105923
:104CE000D4F8105945F40025C4F81059D4F81059D7
:104CF000ED0CED04C4F81059012A33D000EB431336
:104D0000D3F8002942F00442C3F800294B69002B74
:104D1000D7D0D0F83428097801F00F040121A14040
:104D20000A43C0F83428CCE700EB431404F51064C0
:104D30002569ED0CED042561256925F0FF5525F465
:104D4000C01525614E698D68AE4200D94D61256957
:104D500045F40025256125694E69C6F312063543E1
:104D60002561C9E70A691AB100EB4311C1F814299A
:104D700000EB4310D0F8002942F00442C0F80029AB
:104D80009FE7CA68002A96D05A6194E770B49DF8EC
:104D90000C4064B903339D0807E000EB023303F5D0
:104DA000805351F8046B1E600134AC42F5D30020EF
:104DB00070BC7047F0B583B00B784C78012C2BD0C9
:104DC00000EB431303F530642569ED0CED04256118
:104DD000256925F0FF5525F4C01525614D69002D85
:104DE00040F0C58025698E68C6F3120635432561FB
:104DF000256945F400252561012A00F0CD80CA7897
:104E0000012A00F0CF80D3F8002B42F00442C3F80F
:104E1000002B002003B0F0BD4C6984BB00EB4314B1
:104E2000D4F8105925F0FF5525F4C015C4F81059D1
:104E3000D4F8105945F40025C4F81059D4F8105985
:104E4000ED0CED04C4F81059012A4CD000EB4313CB
:104E5000D3F8004944F00444C3F80049CC78012C4D
:104E60006AD04B69002BD4D0D0F83428097801F0EF
:104E70000F040121A1400A43C0F83428C9E700EB20
:104E80004314D4F81059ED0CED04C4F81059D4F8BB
:104E9000105925F0FF5525F4C015C4F81059D4F861
:104EA00010694D698F683D44013DB5FBF7F5474FEB
:104EB00007EAC5453543C4F81059D4F810594E696E
:104EC000C6F312063543C4F8105904F51064CD78C2
:104ED000012DB9D1256925F0C0452561256945F029
:104EE00000552561B0E70A691AB100EB4314C4F814
:104EF0001429CA78012A08D000EB4313D3F80029FB
:104F000042F00442C3F8002983E7D0F8082812F4DD
:104F1000807F08D100EB4311D1F8002942F0005204
:104F2000C1F80029E8E700EB4311D1F8002942F06D
:104F30008052C1F80029DFE7D0F8084814F4807FD8
:104F40000ED1D3F8004944F00054C3F80049144688
:104F50000B46C9681A789B8A0094FFF717FF58E739
:104F6000D3F8004944F08054C3F80049EFE78E6855
:104F70003544013DB5FBF6F52669144F07EAC547F0
:104F80003E43266127698E68ADB206FB05F5C5F381
:104F900012053D4325612FE7CA68002A3FF42FAF71
:104FA00062612CE7D0F8082812F4807F06D1D3F88C
:104FB000002B42F00052C3F8002B24E7D3F8002B5B
:104FC00042F08052C3F8002B1DE700BF0000F81F1D
:104FD00003329208002393420CD210B400F580549F
:104FE000246841F8044B01339342F7D308465DF837
:104FF000044B7047084670470B784A78012A14D052
:1050000000EB4310D0F8002B002A06DB2BB1D0F8C0
:10501000003B23F08043C0F8003BD0F8003B43F452
:105020000013C0F8003B0020704700EB4310D0F89D
:105030000029002A06DB2BB1D0F8003923F0804389
:10504000C0F80039D0F8003943F40013C0F8003933
:10505000E9E70B784A78012A0ED000EB4310D0F82C
:10506000003B23F40013C0F8003BCB78023BDBB2DB
:10507000012B15D90020704700EB4310D0F8003900
:1050800023F40013C0F80039CB78023BDBB2012BCC
:10509000F0D8D0F8003943F08053C0F80039E9E780
:1050A000D0F8003B43F08053C0F8003BE2E7D0F873
:1050B000003823F4FE63C0F80038D0F80038090146
:1050C00001F4FE610B43C0F8003800207047D0F8AF
:1050D000003E23F00303C0F8003ED0F8043823F06C
:1050E0000203C0F8043800207047D0F8003E23F0D7
:1050F0000303C0F8003ED0F8043843F00203C0F8C0
:105100000438002070474269806910407047D0F829
:10511000183800F50060C0691840000C7047D0F8DE
:10512000183800F50060C069184080B2704700EB85
:105130004111D1F8082B00F500604069104070471C
:1051400010B4D0F81048D0F8343801F00F02D34032
:10515000DB01DBB2234300EB411000F510608068F7
:1051600018405DF8044B7047406900F0010070473B
:10517000D0F8003923F4FF6323F00703C0F80039A7
:10518000D0F8043843F48073C0F804380020704726
:1051900010B4046C154B9C4203D9D0F8003B002B93
:1051A00016DB0024C0F8104BD0F8104B44F4002458
:1051B000C0F8104BD0F8104B44F01804C0F8104B56
:1051C000D0F8104B44F0C044C0F8104B012903D074
:1051D00000205DF8044B7047C0F8142BD0F8003B5A
:1051E00043F08023C0F8003BF2E700BF0A30544F81
:1051F00010B5D0F8BC42D0F8C0325BB194F80002D0
:10520000FF2807D09B6894F8012221469847FF2386
:1052100084F80032002010BD43230380004870470B
:105220002C000020432303800048704770000020BA
:105230004323038000487047B40000200A23038002
:1052400000487047F800002038B5D0F8BC5275B15E
:10525000044601F0A2F8C5F80C02D4F8C032DB68AD
:1052600005F50371D5F804029847002038BD0320E6
:10527000FCE770B5D0F8C442D0F8BC5255B301EB8E
:105280008102930003449B696BB90024C5F8144262
:10529000D0F8C0321B690A4605F50471D5F808023A
:1052A0009847204670BDC1EBC106B2001444646C3F
:1052B000B3FBF4F204FB1233002BE6D101EB8102C5
:1052C0009300034400249C612346224601F0A7F882
:1052D0002046E7E70320E5E770B582B005460C46B7
:1052E000D0F8BC6200238DF80730ADF804300B789D
:1052F00013F0600227D0202A5BD1CA883AB9D0F8CF
:10530000C0329B68002248789847002054E013F090
:10531000800F0CD0D0F8C0329B6831466078984737
:10532000E2883146284600F0D8FD002044E04B7862
:1053300086F800328B7986F80132CA88314600F04F
:10534000E1FD002038E04B780B2B2ED8DFE803F08E
:1053500006362D2D2D2D2D2D2D2D142390F89C321C
:10536000032B05D1022201A900F0B7FD002023E0A4
:1053700000F080FA03201FE090F89C32032B06D146
:1053800001220DF1070100F0A8FD002014E000F05B
:1053900071FA032010E090F89C32032B01D1002019
:1053A0000AE000F067FA032006E000F063FA032049
:1053B00002E000F05FFA032002B070BD0020FBE7BE
:1053C00038B50446812101F00AF80025258701211E
:1053D000204601F004F8A4F878518221204600F01C
:1053E000FEFFA4F84C50A4F84E50D4F8BC324BB198
:1053F000D4F8C0325B689847D4F8BC0204F06CFF64
:10540000C4F8BC52002038BD70B504464FF4077094
:1054100004F05AFFB0B30546C4F8BC02237CB3BB0A
:105420004FF4007302228121204600F0CDFF0126B7
:1054300026874FF4007302223146204600F0C4FF55
:10544000A4F878611023A4F84E30082303228221A7
:10545000204600F0B9FF0123A4F84C30D4F8C03244
:105460001B6898470023C5F81432C5F81832237C0E
:105470000BB34023D5F804220121204600F0D7FFCA
:10548000002070BD0023C4F8BC320220F9E740239D
:1054900002228121204600F097FF01262687402323
:1054A00002223146204600F08FFFA4F878611023D5
:1054B000A4F84E30C9E74FF40073D5F80422012157
:1054C000204600F0B4FF0020DBE719B1C0F8C0129D
:1054D0000020704703207047D0F8BC32C3F8081290
:1054E000C3F8102200207047D0F8BC32C3F8041271
:1054F00000207047D0F8BC22A2B108B5D2F814320F
:105500000BB1012008BD0123C2F81432D2F81032C9
:10551000C362D2F81032D2F80822812100F07FFF56
:105520000020EFE703207047D0F8BC229AB108B5FD
:10553000037C3BB14023D2F80422012100F077FF25
:10554000002008BD4FF40073D2F80422012100F0BE
:105550006EFF0020F5E703207047C0B108B5034691
:10556000D0F8B80210B10020C3F8B802D3F8CC02CA
:1055700010B10020C3F8CC0209B1C3F8B412184628
:10558000012380F89C32027000F0BCFE08BD0320AD
:10559000704710B582B00023ADF8063059B104460B
:1055A000C4F8B8128B6A0DF106009847C4F8CC0213
:1055B000002002B010BD0320FBE708B500F0FCFEA0
:1055C00008BD08B5D0F8B83213B11B68984708BDBC
:1055D0000320FCE708B5D0F8B8320BB15B689847F8
:1055E000002008BD38B5044600F2AA25284600F080
:1055F0002DF90123C4F89432B4F8B032C4F89832CB
:1056000094F8AA1201F01F03012B0DD03BB1022B1D
:105610000FD001F08001204600F0E9FE03E02946AA
:10562000204600F0CEFA38BD2946204600F004FBA3
:10563000F9E72946204600F033FBF4E710B50446AD
:1056400029BB1346D0F89422032A01D0002029E078
:10565000D0F85C11D0F8602191420DD8D0F8B83262
:105660001B6923B190F89C22032A00D19847204659
:1056700000F05FFC002015E0891AC0F85C118A4236
:1056800028BF0A46194600F04CFC00200AE00A46F2
:10569000D0F8B8329B6933B190F89C12032904D139
:1056A0001146984710BD0320FCE70320FAE710B528
:1056B0000446002946D11346D0F89422022A05D088
:1056C00094F8A032012B39D0002046E0C269016A6B
:1056D0008A4213D88A421DD0D4F8B832DB682BB185
:1056E00094F89C22032A01D1204698478021204625
:1056F00000F07DFE204600F027FCE1E7521AC2616F
:10570000194600F0F7FB00231A461946204600F020
:105710008EFED5E783699942DED8D0F8982293426D
:10572000DAD20022114600F0E5FB0021C4F89812FD
:105730000B460A46204600F07AFEC1E7002084F8B6
:10574000A0020AE00A46D0F8B8325B6933B190F89B
:105750009C12032904D11146984710BD0320FCE791
:105760000320FAE770B50446012380F89C32002339
:10577000C0F894324360C0F8A432D0F8BC3223B1F0
:10578000D0F8B8325B6800219847402300221146C8
:10579000204600F019FE0126A4F864614025C4F8F3
:1057A00060512B4600228021204600F00DFEA68489
:1057B0002562002070BD01740020704790F89C3273
:1057C00080F89D32042380F89C320020704790F8C6
:1057D0009C32042B01D00020704790F89D3280F855
:1057E0009C32F8E708B590F89C32032B01D00020DA
:1057F00008BDD0F8B832DB69002BF8D09847F6E73F
:1058000000207047002070470020704708B5012332
:1058100080F89C32D0F8B83213B15B6801799847B0
:10582000002008BD002302E00133DBB20130027822
:10583000002AF9D11846704708B54B88012B00D0D3
:1058400008BDC0F8A43200F074FBF9E70B780370D0
:105850004B7843708B78CA7843EA022343800B79F4
:105860004A7943EA022383808B79CA7943EA022387
:10587000C380704710B50446802100F0B8FD0021B8
:10588000204600F0B4FD10BD30B583B004460D468F
:105890000023ADF806304A88130A013B062B00F2BC
:1058A000AB80DFE803F0041F33A9A98D9A00D0F87C
:1058B000B4321B680DF10601007C9847EA88002A83
:1058C00000F0A380BDF80630002B00F099809A42CA
:1058D00028BF1A46ADF806200146204600F0FDFA22
:1058E00003B030BD037C43B9D0F8B8329B6A0DF1E8
:1058F0000600984702234370E0E7D0F8B832DB6A2D
:105900000DF10600984702234370D7E7D2B2052A6B
:1059100052D8DFE802F003101D2A3744D0F8B43221
:105920005B6823B10DF10601007C9847C6E7294664
:10593000FFF7A0FFD4E7D0F8B4329B6823B10DF194
:105940000601007C9847B9E72946FFF793FFC7E7B0
:10595000D0F8B432DB6823B10DF10601007C984722
:10596000ACE72946FFF786FFBAE7D0F8B4321B69E7
:1059700023B10DF10601007C98479FE72946FFF708
:1059800079FFADE7D0F8B4325B6923B10DF10601C0
:10599000007C984792E72946FFF76CFFA0E7D0F814
:1059A000B4329B6923B10DF10601007C984785E76D
:1059B0002946FFF75FFF93E72946FFF75BFF8FE775
:1059C000037C33B9D0F8B8325B6B0DF10600984711
:1059D00074E72946FFF74EFF82E7037C43B9D0F80E
:1059E000B8321B6B0DF1060098470723437065E73B
:1059F0002946FFF73FFF73E72946FFF73BFF6FE7B5
:105A000029462046FFF736FF6AE7204600F091FA64
:105A100066E738B504468B88F3B9CB88E3B94B8881
:105A20007F2B19D803F07F0590F89C32032B0CD004
:105A300080F89E52294600F0EAFC204600F079FAF0
:105A400035B1022384F89C3209E0FFF713FF06E02A
:105A5000012384F89C3202E02046FFF70BFF38BD9B
:105A600070B504460D4689782E4B197001290FD860
:105A700090F89C32022B11D0032B25D02946FFF73A
:105A8000F9FE284B19782046FFF7A4FD032603E012
:105A90002946FFF7EFFE0326304670BD81B1416015
:105AA000FFF78FFD064620B129462046FFF7E2FEAC
:105AB000F2E7204600F03DFA032384F89C32EBE73E
:105AC00000F037FA0026E7E7C9B14368994225D0CC
:105AD000D9B2FFF77FFD134B197861602046FFF7BD
